:020000040000FA
:1000000000400020615C01009D5C01009F5C0100DC
:1000100000000000000000000000000000000000E0
:10002000000000000000000000000000A15C0100D2
:100030000000000000000000A35C0100A55C0100BE
:10004000A75C0100813001005D5E0100A75C01003A
:10005000A75C010000000000C9980100A75C010036
:100060008D9A0000A75C010065980100A75C010063
:10007000A75C0100A75C0100A75C0100A75C010070
:10008000A75C0100A15F0100A75C0100A75C010063
:10009000A75C0100A996010085960100D59B000090
:1000A000E59B0000A75C01000000000000000000CC
:1000B0000000000000000000000000000000000040
:1000C00008B5054B054803331B1A062B03D9044B0F
:1000D000002B00D0984708BD10010020100100201F
:1000E000000000000648074908B5091A8910CB0F1F
:1000F0005918491003D0044B002B00D0984708BD75
:1001000010010020100100200000000010B5074C75
:100110002378002B09D1FFF7D3FF054B002B02D02A
:10012000044800E000BF0123237010BD100100202F
:1001300000000000B8C9030008B5094B002B03D02C
:100140000848094900E000BF08480368002B02D1B5
:10015000FFF7C8FF08BD064B002BF9D09847F7E71B
:1001600000000000B8C903001401002010010020A5
:1001700000000000144B002B00D1124B9D46402282
:1001800092029A1A924600218B460F461148124A53
:10019000121A2CF0ACFA0D4B002B00D098470C4BE8
:1001A000002B00D098470020002104000D000B48D0
:1001B0002CF076F922F06CF92000290029F0F6FEE7
:1001C00021F0B2FE00000800004000200000000006
:1001D0000000000010010020FC2F0020412202003E
:1001E00070B511F091FD0B4C0026231CA4331E604A
:1001F00026630BF041FF084D0121281C12F096F8F0
:10020000281C6E215E2229F02DF965602560666448
:1002100070BDC046A82E0020DC2E002070B506243C
:10022000134EC3001C4373680022051C211C181DBB
:1002300005F0CAFA021E18D1706C002807D00430ED
:10024000211C05F0C1FA002801D040680EE0002210
:100250000848211C05F0B8FA021E06D106492A1CDE
:10026000064805F0A3FC12F0EEF8506870BDC046D9
:10027000A82E0020100703009C3B030048E002006A
:100280000A4B10B5041C18685B6898420AD0062116
:10029000E30004301943002205F096FA002801D04B
:1002A000406802E0201CFFF7B9FF10BDA82E002017
:1002B00008B5074B586C002801D1064807E0043008
:1002C0002621002205F080FA0028F6D0406808BDFB
:1002D000A82E0020340403000A1C062108B5034B95
:1002E000C0000143186829F0BDF808BDA82E002001
:1002F000062108B5034BC0000143186829F0BCF87B
:1003000008BDC046A82E00200A1C062108B5034BD4
:10031000C0000143586829F0A5F808BDA82E0020A8
:10032000062108B5034BC0000143586829F0A4F822
:1003300008BDC046A82E002038B5051C0C1C062898
:1003400006D1081C03F0BCFA00284CD028484DE028
:100350000123194217D04810042D06D0052D0FD0C7
:10036000002D42D10028F1D03DE0C022120690427B
:1003700004D18020C00524F023F937E0404200E09A
:10038000C043400013E0022813D11A4B0B40062B48
:1003900008D08B070DD10B689A69174B9A4208D188
:1003A000486802E0C80828F09AFF0123400018437B
:1003B0001CE0201C03F05AF84369002B0DD10F4BB1
:1003C000AD00201CED5824F087F90D49031C2A1CB0
:1003D0000C4805F0EBFB12F036F8281C211C98475E
:1003E000002803D1EBE7084800E0081C38BDC046F0
:1003F000ECE70200070080FF69DB00005CD0020030
:10040000B53B03004CE30200A8E70200F8B5041C6A
:100410001D1C0F1C161C03F029F80369201C9C46A8
:10042000002B08D124F058F90549021C054805F0B5
:10043000BDFB12F008F8391C321C2B1CE047F8BD3C
:10044000D33B03004CE30200F8B5061C0D1C171C3F
:100450001C1C00290BD0186803F008F87368984238
:1004600005D00649064825F0ECF911F0ECFFB0681C
:10047000291C3A1C231CFFF7C9FFF8BDEF3B030002
:100480004CE30200F8B5061C0F1C141C1D1C93073E
:1004900014D11368174A934202D163682B6028E095
:1004A000154A934207D1002802D002F0DFFF071C53
:1004B000636888C51DE0114A934201D12C6018E0A1
:1004C0005B681A1CF23A012A01D9F02BF6D1002EF2
:1004D0000ED1201C02F0CAFF094B984208D10C2013
:1004E00028F0CFF9074B476003608460286000E084
:1004F00050C5F8BD14D00200D8CF0200D8CE0200FB
:1005000088E8020090CE0200F8B500231360536023
:10051000071C0C1C151C02F0A9FF061C102C05D191
:10052000836A002B02D00F4B88C519E0F369002BBA
:1005300004D0381C211C2A1C984711E0B06B0028FD
:100540000ED00621E4001A1C0430214305F03CF9CA
:10055000031E05D05A68381C311C2B1CFFF792FF74
:10056000F8BDC0460007030070B5161C041C0D1C26
:10057000FFF7CAFF3368002B15D10B4EA30707D135
:100580000A4B22689A4203D1301C0949626805E08F
:10059000201C24F0A1F8021C301C06492B1C05F07D
:1005A00005FB11F050FF70BD80E10200D8CE0200C3
:1005B000073C03002E3C030073B5041C0D1C161CE5
:1005C00002F054FFC369002B09D004220196009267
:1005D000201C291C6A469847009B002B0AD0201C2F
:1005E00024F07AF80449021C2B1C044805F0DEFABA
:1005F00011F029FF73BDC0462E3C030080E10200CC
:1006000013B5041C02F032FF436A002B0BD1201CEF
:100610001A216A46FFF778FF009B002B08D0684636
:1006200003F008FA0EE0201C984700280AD1EEE7F4
:10063000201C24F051F80449021C044805F0B6FAC5
:1006400011F001FF16BDC046503C03004CE3020010
:1006500037B5041C02F00AFF856A201C002D01D06A
:10066000A84716E010216A46FFF74EFF009B002BBB
:1006700005D0281C291C6A4623F00FFC09E0201C29
:1006800024F02AF80349021C034805F08FFA11F000
:10069000DAFE3EBD6C3C03004CE3020030B5051CA5
:1006A0008FB011F0D7FA281C02F0E0FE846A281CF3
:1006B000002C01D0A04728E010216A46FFF724FF54
:1006C000009B002B17D002A811F0A2FE011E07D13B
:1006D0006A4623F0E2FB041C11F0B0FE201C14E07B
:1006E000039B0B49186801F0CDF8031C201C002B5C
:1006F0000BD1039807E0281C23F0EEFF0549021CEC
:10070000054805F053FA11F09EFE0FB030BDC0460B
:1007100008E102006C3C03004CE30200F0B585B038
:1007200002900E1C171C202802D1914214D1A1E185
:10073000029B1B2B01D01E2B10D1301C391C02F048
:100740002DFF002803D0029B1B2B05D192E1029BB9
:10075000BA481B2B00D099E1B94897E1029B212BA5
:100760002AD1101C05F06AFA002807D0301C391C69
:1007700025F071F8002800D07CE1EDE703243C402F
:1007800000D042E1AF4B3A689A4200D03DE17B682D
:100790009C42E1D2A300FB189D68281C05F04EFA8C
:1007A000002800D130E1301C291C25F054F8002825
:1007B00000D05FE10134EAE70123194200D1EAE009
:1007C0004D101A4200D1DEE0029B54101D2B00D9BF
:1007D0001BE1181C19F090F91E00200023002600D0
:1007E00038003F00410043004E0056006B0074008B
:1007F000A3001E0020002300260038003F00410017
:1008000043004E0056006B007400BC00C00019018C
:10081000C400C800254300E065402E1CA8E02C4021
:10082000261CA5E0002C02DA8748884902E11F2C2B
:100830006FDC874B23419D426BDCC0231B062341A9
:100840009D4266DBA540E8E7002CEDDB1F2C00DDB8
:100850001F242541E1E72E198AE02E1B88E0281C81
:10086000211C03F063FF002853D101206C43640076
:1008700020430BE1002C00D1DAE0281C211C24F0DD
:1008800044F81BE0002C00D1D2E0281C1AF014FA26
:10089000051C201C1AF010FA011C281C19F04AFD36
:1008A0000323022598436B4B2843C018EEE0002C2D
:1008B00000D1BDE0281C211C24F017F8061C57E0CD
:1008C000002C02DB0395012617E0281C1AF0F4F92E
:1008D0000323022698435F4B0643F61889E0E3079B
:1008E0000ED4012C44D003986410011C03F01EFFA9
:1008F00000280ED1039B5B430393002CEFD137E01C
:10090000301C039903F012FF002802D1039B5E43C1
:10091000E7E7E917281C23F044FE061C69E0002CD9
:1009200000D185E00021022010F0BEFA211C061C37
:10093000281C23F0EAFF012740003843B060211C47
:10094000281C23F0D2FFB8403843F060301C9DE0F3
:10095000A54200DB00E78DE0A54200DCFCE689E073
:10096000A54200DDF8E685E0A54200DAF4E681E084
:1009700073001A1C724002D40120184386E0301C18
:1009800023F01EFE82E003231340022B03D1324BDF
:100990001340062B70D1029B1F2B2AD1381C02F06A
:1009A00065FD8369051C002B07D16B6A002B16D0EF
:1009B000381CFFF725FE041C0BE00298391C321C82
:1009C0009847002862D1F0E7311C02F0E7FD0028CB
:1009D00050D1201CFFF762FE0028F5D1BCE6381C80
:1009E00023F07AFE1D49021C1D4805F0DFF811F0C6
:1009F0002AFD301C02F03AFD8369002B05D00298D5
:100A0000311C3A1C98473FE02F1C029B301C9A0077
:100A1000144BD55823F060FE041C381C23F05CFEF8
:100A2000114900902A1C231C0D4805F0BFF8DEE791
:100A30000E480F4924F005FFD9E7C046A8E7020099
:100A4000ECE70200840003005CDE02008B3C030044
:100A5000FFFFFF3F00008080070080FF503C030045
:100A60004CE3020014CF0200A03C0300B8E20200F5
:100A7000C53C0300064809E0281C1AF01DF93A1C81
:100A8000011C029803F086FD0028BED005B0F0BD21
:100A9000A8E70200F0B513688DB00693002803D1D3
:100AA000131D0393041C03E0131C546808330393C1
:100AB000FF220B1C13400193090A1140019A4B00BD
:100AC00005939B18039A9B00D558D3185F6804912F
:100AD000381E09D00020BB0706D17F4B3A689A42E6
:100AE00002D1381C28F0BBFC049BC618002D16D17F
:100AF000019B760001339B199800009327F0C1FEFB
:100B0000251C061C002C01D001250460019BA800B7
:100B10009A00301803992BF0CDFD019B30E0AB0714
:100B200031D12B686D4A934202D06D4A93422AD14B
:100B3000281C09A90AAA02F025FE099B019A013383
:100B40009B1876009B199800009327F09AFE251CAD
:100B5000061C002C01D001250460019BA8009A000E
:100B6000039930182BF0A6FD019B0A99E818099B00
:100B700080009A0030182BF09DFD019B099A9B186C
:100B80005B19029338E0019B7600181D83199800C9
:100B9000009327F076FE0294061C002C02D001235D
:100BA00004600293029B03999800019B30189A00FD
:100BB0002BF080FD019A029B9446281C634402930B
:100BC000FFF71EFD029B07909C000798FFF766FD4C
:100BD000051E11D0029B009A934207D3301CD1000E
:100BE00027F065FE061C009B5B000093029B3551BD
:100BF000013302930434E8E7029B9800049B301809
:100C0000DA00019B9900039B59182BF053FD029ABF
:100C1000059B944663441C1C002F4ED00325381CB2
:100C20003D4019D12C4B3A689A4215D128F02DFC41
:100C300041688D4241D08368EA009F58002F09D057
:100C4000042F07D0A300F7508768F318BA1852682A
:100C500002345A600135ECE7C5210AAAFFF784FC8B
:100C600000200AAA011C23F018F9FFF7C9FCA5000F
:100C700001900198FFF712FD071E1ED0009A631C19
:100C800093420BD353000093032B01D8042300930A
:100C9000009B301C990027F00AFE061C09AA381C8C
:100CA000022102F091FD099B02341B687351099BDC
:100CB0005A6873195A600835DBE7029B0698E21AF6
:100CC000191C5208331CFFF7A1FB041C301C27F031
:100CD000FFFD201C0DB0F0BDBC1303008400030019
:100CE000ECEE020073B50C1C161C83071FD10368C1
:100CF000224A934207D0224A934218D1694601AA58
:100D000027F0BEFB03E0694601AA28F01CFA009B0D
:100D1000A34227D32AD80023019DA000A3422CD0B0
:100D20009900421A043AAA5801337250F6E7FFF7C5
:100D300067FC0023051C0093009B281CA3420CD2D7
:100D4000FFF7ACFC00280DD0009A0E49A31A5B18DF
:100D50009B00013298510092EEE7FFF79FFC0028BC
:100D60000BD003E008480949009A02E0221C06481B
:100D7000074904F01BFF11F066FB73BD84000300FC
:100D8000ECEE0200FFFFFF3F5CDE0200D63C0300FA
:100D9000F93C0300F7B5141C0A0AFF230E1C151CAE
:100DA0001E401D4083073CD107683E4B9F4203D045
:100DB0003D4B9F4235D104E0694601AA28F0C3F9B2
:100DC00009E0FF231143194201D1206068E0694620
:100DD00001AA27F055FB009BAA19934259D39A0008
:100DE0009446002001998200A84206D06746BF1AA7
:100DF000043FCF590130A750F5E79B1BB500181AE7
:100E00004919A41827F024FB019B20605D190023D9
:100E100001360133B34243D09A0051426958A15080
:100E2000F7E7FFF7EDFB0023071C0093009BB3429D
:100E30000CD2381CFFF732FC00282AD0009AB31AD3
:100E40005B199B00013218510092EFE70020011C52
:100E500027F0FEFA061C381CFFF720FC011E03D009
:100E6000301C0BF0D1FAF6E7B168A94211D3AB0000
:100E7000E3181E6088009C4206D0C21AF768A218C8
:100E8000D259043B1A60F6E7491B301C27F0FDFAE3
:100E900006E00649009A064804F088FE11F0D3FAED
:100EA000F7BDC04684000300ECEE0200D63C030010
:100EB0005CDE0200F0B587B01D1C061C0C1C019204
:100EC00002F0D4FA2F4B984206D1301C211C019A13
:100ED0002B1C04F06FFB53E0876A2B4B002F07D0CD
:100EE0009C4220D1301CB8472860002816D147E02A
:100EF0009C4218D1301C102103AAFFF705FB039B6D
:100F0000002B0DD1301CCD2103AAFFF72DFB0120B2
:100F10000021059403AA22F0C0FF286001202FE0E1
:100F2000381C391CF6E7002CECD1019B201C002B4F
:100F300026D0181C02F09AFA144900F0A3FC0028ED
:100F40000FD0301CCC2103AAFFF7DEFA039B002B45
:100F500007D0201C211C03AA22F09FFF2860201C20
:100F60000EE0301CCE2103AAFFF7CEFA039B002B24
:100F700003D00120002101AACDE70220019B2B60B4
:100F800007B0F0BD00DD0200D4D1020000E4020091
:100F900010B5041C04F052FE002806D00021201CCD
:100FA0000A1C0B1CFFF732FA0AE0201C24F04DFC4F
:100FB000031C201C002B03D10248034924F041FCF0
:100FC00010BDC0464CE30200213D03007FB506235F
:100FD000C0001843054B01900491052001A902931C
:100FE0000393059201F004FF07B000BDD4D10200C5
:100FF0000C23F0B58BB000AFFA18051C0C1CFFF7E2
:1010000083FA3B69002B06D02B49221C2B4804F0A5
:10101000CDFD11F018FAF86800284AD1281C23F0F9
:1010200034FB0028F0D00C23281CFA180D21FFF700
:101030006BFA0823F868F9180CF0A6FA3860201C3F
:10104000BD6828F051F96A4601352B187B600E33D4
:10105000DB08DB00D31A9D46BD6839682A1C684648
:101060002BF028FB6E462E23201C735528F041F9E7
:101070003860201C28F038F901357519021C3968D0
:10108000281C2BF017FB7968684610F07FFE0623BA
:10109000C00018430A4B0822BB61FB61094BBA1818
:1010A0003B6201237B620B337861D118052001F08C
:1010B0009FFEBD460BB0F0BD4B3D030004E20200B5
:1010C000D4D10200A8E70200F0B5174C0F1C6168EC
:1010D00095B003912168061C08A804916260236002
:1010E00011F096F9051E06D0039B09986360049BD6
:1010F000236011F0A8F9336805A8311C3A1C01934C
:101100000DF0D4FF2A1C2B1C019905A806F0FCF950
:1011100022F0B4FE051C11F091F9281C039B6360BA
:10112000049B236015B0F0BDA82E002010B5041C50
:101130000DF094F9031E064803D0064924F081FB04
:1011400003E00549221C04F031FD11F07CF9C04692
:10115000DCDE0200613D03008A3D0300011C08B58E
:10116000024824F06EFB11F06EF9C046F4E2020072
:10117000F8B5041C0D1CA368002B0AD0334AE9689B
:10118000914206D0EB58002B03D00422E3681A608A
:101190005AE0A86B002820D0062163680430DB00E9
:1011A0001943002204F010FB031E16D0227C002AF3
:1011B00002D0002021680BE02068002807D0234AD5
:1011C000E968914203D0224A954200D00069291C67
:1011D0005A68E368FFF756F936E02368002B03D11D
:1011E0006E6B002E14D12FE0227C002AF8D1174A12
:1011F000E9689142F4D0164A9542F1D018696168C5
:10120000E268FFF781F9E3681B68002BE8D01BE078
:1012100075680836002D17D000276B1E0C4A9F42B8
:101220000CD2BB00F158914206D0201CFFF7A0FF62
:10123000E3681B68002B07D10137EEE7054BED187B
:10124000AD00AD59954296D1F8BDC04605150000D8
:10125000C0D80200FFFFFF3FF0B5146889B0002C32
:101260001FD143685E6B002E1BD0171C736803AD43
:1012700001938368083603936960AC60EA602C745C
:10128000019B9C4209D0A300F158281CFFF770FF76
:101290003B68002B05D10134F2E7281C0249FFF717
:1012A00067FF09B0F0BDC046C0D8020008B50B1CEE
:1012B00002495A6823F0EBF808BDC046B83D030068
:1012C00070B50E1C00218AB0041C151C05A8142240
:1012D000009101912BF00BFA202307936B460594A4
:1012E00008931C23002D02D0042D07D11A23216856
:1012F00005A80693FFF73CFF022106E01B232168A7
:1013000005A80693FFF734FF03210098042805D1B0
:101310002069311C2A1C02F01FFB0DE000280BD0B5
:1013200002AB0022029403960495FFF76FF8031CAA
:101330000248042D00D1181C0AB070BDD4D102009F
:10134000F0B5204B82008BB0D25805AE00237260FE
:101350001422019003AF05910D1C301C0968039302
:101360007B60B260F7603374FFF702FF039C042CCC
:1013700005D101982969FEF7DFFF041C1EE0002C4F
:101380000DD0201C291C22F080FD019B041C022B87
:1013900014D102F081F90124400004430EE0019BC6
:1013A000022B0BD12433301C29687360FFF7E0FE59
:1013B0003B68002B02D101246D002C43201C0BB094
:1013C000F0BDC0465CD00200F0B5161C72427241FE
:1013D00089B00C1C1F3200230492082201A903AD1E
:1013E0000691071C2168281C019302932B74039417
:1013F0000592FFF7BDFE019B002B08D1002E06D100
:101400001F33281C21686B60AE60FFF7B1FE0198A6
:10141000042819D1206902F029F8164BC2689A42B3
:101420000ED1002E07D02368586827F062FF011CF8
:10143000381C22F060FF8022381C324321690BE007
:10144000381C2169321C07E0002808D0211C22F03A
:101450001CFD0022011C381C02F022F808E0201CB0
:1014600023F03AF90449021C231C381C23F00FF81E
:1014700009B0F0BD955A0000C53D030038B5041C05
:101480000D1C0B4922F037FF6968201C002202F076
:1014900007F8201C074922F02EFFA968201C002213
:1014A00001F0FEFF201C044922F025FF38BDC04694
:1014B000D73D0300E03D03009D920300F7B50025F2
:1014C000436808300F1C061C2C1C0193019B9D4295
:1014D00012D0AB00F358094A93420BD0084AD9689E
:1014E000914202D03B60013404E0586B391CFFF795
:1014F000E5FF24180135E9E7201CFEBDC0D8020035
:1015000005150000F0B58FB0051C0F1C406B05A938
:1015100001920293FFF7D2FF061DB600301C27F0A0
:10152000B0F9041C002120C024F0A7F8321C201CB4
:10153000103A103000212BF0DAF8012F05D1029B70
:101540001B680393042B00D183E00922002309A820
:10155000426007AE0332291C8260C66003740793A1
:1015600073600993FFF704FE0798042807D10598D4
:10157000391CC668019A029BB047206123E000280D
:1015800021D0019A3A4306D1012106AB0695FEF718
:101590003DFF041C17E0019B5C003C190134A400D2
:1015A000201C27F06EF9221F0390029920C02BF017
:1015B00081F8791C3068019A039BFEF727FF041C11
:1015C000039827F085F9201C01F050FFA84240D174
:1015D0000023082209A8291C089307930B93099458
:1015E0000A92FFF7C5FD079B002B32D001993943C2
:1015F00005D1081C07AA22F050FC061C1CE0019B28
:101600005E00BE190236B600301C27F03AF9321CD3
:10161000051C079B083A03600393089B02994360EB
:1016200008302BF047F8381C01992A1C22F035FCB1
:10163000061C281C27F04CF9074B9E4209D0301C91
:1016400023F04AF80549021C054804F0AFFA10F0EF
:10165000FAFE201C0FB0F0BDD4D10200E33D030020
:101660004CE3020038B5C568041C002D06D10449BE
:101670006268044804F09AFA10F0E5FEA84738BD05
:101680000B3E03004CE30200F8B5041C0F1C161CB3
:101690001D1C22F03CFC002809D1201C23F01CF862
:1016A0000949021C094804F081FA10F0CCFE042814
:1016B00001D1206902E0211C07F022FA391C321CFA
:1016C0002B1CFEF7A3FEF8BDD33B03004CE3020046
:1016D000F0B5154B89B0161C8200D5580C1C0C2295
:1016E0000021071C68462BF002F8182303A8456068
:1016F000836000256B462168C36005740394FFF77F
:1017000037FD0098042805D1381C2169321CFFF7E9
:1017100005F807E0002805D00120291C6A4602963A
:1017200022F0BBFB09B0F0BD14CF0200F0B585B0CC
:10173000071C0D1C081C161C01A902AA27F003FD9A
:101740000023019902988B420CD09A008258D468E9
:10175000002C05D123495268234804F027FA26E0DB
:101760000133F0E73C2027F09EF8204B041C036077
:101770001F4B476083601F4B4563C3601E4B8663EE
:1017800003611E4B03A943611D4B83611D4BC36164
:101790001D4B03621D4B43621D4BC362281CFFF7A8
:1017A0008DFE012805D910481A4924F04AF810F096
:1017B0004AFEA36B4E21181D002204F005F8051EF9
:1017C0000DD0032243681A4009D11B685B68F22BD5
:1017D00005D1031D0121104822F0F4FB6860201C94
:1017E00005B0F0BD283E03004CE30200D8CE020055
:1017F000C913000005150000891600004113000000
:10180000D1160000393F0200C112000089400200D9
:1018100045400200513E030014D0020037B51C1CA5
:1018200000230D1C0093081C0333111C01220FF030
:1018300045F8012D09D0032D0BD120680BF00EFACD
:101840006168A268FFF772FF09E0206801F00EFEF0
:1018500005E00349034823F0F4FF10F0F4FD3EBD1A
:101860007F3E03004CE3020038B5051C0C200C1C25
:1018700027F007F8024B45600360846038BDC0461E
:101880009CCF0200F8B50F1CB8421ED003240440C0
:101890001DD1134B02689A421BD1466B002E1AD001
:1018A00075680836002D18D06B1E9C4208D2A30024
:1018B000F058391CFFF7E6FF00280FD10134F3E799
:1018C000084BED18AD00A859DEE7012006E0002026
:1018D00004E0201C02E0301C00E0281CF8BDC046DB
:1018E000D8CE0200FFFFFF3FF0B585B0051C019187
:1018F000081C8B0710D10B68154A934204D10123B1
:10190000029301AB03930DE0124A934204D102A962
:1019100003AA27F018FC05E00F49104823F091FFB7
:1019200010F091FD0024029E039FB4420BD0A3004F
:10193000F9580B4B994208D0281CFFF7A3FF002849
:1019400003D10134F1E7074800E0074805B0F0BDD6
:10195000D8CE0200840003009B3E03004CE302004B
:10196000C0D80200ECE70200A8E7020008B5830730
:1019700003D1064B02689A4205D00549054823F079
:1019800060FF10F060FDFFF7AFFF08BDD8CE02008A
:10199000D43E03004CE3020030B585B003AB051C18
:1019A000141C081C02AA01A927F01AFC019A164966
:1019B00000238A4200D0531002984210884200D17E
:1019C0002A1C002B04DA5B19D843C017034002E03D
:1019D000AB4200D92B1C002A01DA521902E0AA42BC
:1019E00000D92A1C23609A4200DA1A1C039B626009
:1019F0008B4205D0032B03D05B10A360002001E0D5
:101A00000120A06005B030BDD4D10200F0B587B090
:101A1000061C151C0C9F1B2803D1BA4212D00020B3
:101A20003FE0192808D01C280CD13D1C171C0A1CAB
:101A30001D26191C131C05E03D1C171C0A1C1A2628
:101A4000191C131C0397AF4200D903951C1C0023DB
:101A500002910193019B039A93421BD0029B059430
:101A6000049301CB02CC029301F098FD002802D030
:101A7000019B0133EDE71B2ED1D0049B301C19686C
:101A8000059B1A68FEF74AFE074BC01A43425841AD
:101A9000C0B206E0BD4201D002D2C0E71A2EBED0CD
:101AA000012007B0F0BDC046A8E70200F0B51E1C3B
:101AB00085B0039018680D1C171C01F0D7FC7368E3
:101AC000019002930024022F18D9291CB268012327
:101AD00001F08EFE041C032F10D0291C0198F2681F
:101AE000012301F085FE051C08E0039AA300D058ED
:101AF000029901F053FD002808D10134AC42F4D31F
:101B00000549064823F09DFE10F09DFC012064006D
:101B1000204305B0F0BDC046F73E03005CDE020086
:101B200010B5041C102026F0ACFE044B846003604A
:101B3000034B43600023C36010BDC0467CDC020041
:101B40002F42020013B5041C081C01A90BF0A2F8D7
:101B5000002C07D0012C0BD1019926F098FB4000F6
:101B6000204306E0019B0348002B02D1024800E01D
:101B7000002016BDA8E70200ECE70200F0B585B032
:101B8000041C081C03A9151C0BF084F8061C002D6E
:101B900006D1201C3549039A331C22F078FC63E0FF
:101BA000011C0022039BC3180093009B99420ED294
:101BB0000B78272B04D0223B58424341DBB201E093
:101BC000002301220131002BEFD0272703E0272734
:101BD000002A00D0053F264D201C291C3A1C22F06B
:101BE00056FC0195009B9E4239D2301C26F01EFB0C
:101BF000051C301C26F035FB061CBD4203D1201C01
:101C00001C493A1C28E05C2D02D1201C1A4914E022
:101C10002B1C203B5E2B02D8201C01991BE00A2DB7
:101C200002D1201C154908E00D2D02D1201C1449B9
:101C300003E0092D04D1201C124922F05CFBD1E7FE
:101C4000FF2D02D8201C104905E0104B201C104924
:101C50009D4200D90F492A1C22F019FCC2E7201C22
:101C600001993A1C22F013FC05B0F0BD0E3F0300B1
:101C7000143F0300133F0300173F03001A3F030004
:101C80001D3F0300203F0300233F0300FFFF000030
:101C90002A3F0300313F0300F7B51F1C08AB0C1CA3
:101CA000161C1D78FB0702D57F1001970EE0381C2B
:101CB00001A901F003FD002808D1381C22F00CFD19
:101CC0001B49021C1B4803F071FF0DE0019BA0198A
:101CD000002B17DA0138A04208D20193002D25D13C
:101CE0001548164903F062FF10F0ADFB3F21027862
:101CF00001388A43803A511E8A419B18002BEAD151
:101D0000013014E0002B11D0844203D30193002D45
:101D10000DD1E5E73F2122788A43802A01D10134A1
:101D2000F8E7002B02D00134013BEDE7201CFEBD9B
:101D3000383F03004CE30200B8DF0200603F0300BD
:101D4000F0B587B0061C0D1C171C01F08FFB02A913
:101D5000041C301C0AF09EFF061C042F4FD1AB0759
:101D600035D1284B2A689A4231D105AB281C03A9EA
:101D700004AA27F035FA059B234FBB4204D0032B5E
:101D800002D02248FFF7EAF9039B351CBB4207D07B
:101D90000122201C0092311C029AFFF77DFF051CD6
:101DA000049BBB4208D00122201C0092311C029AE5
:101DB000FFF772FF021C01E0029BF2180E20AA42FC
:101DC0001ED3521B201C291C26F010FC18E00023F7
:101DD000311C0093029A2B1C201CFFF75DFF027838
:101DE000012153B2002B06DA402301211A4202D00E
:101DF00001315B08FAE701220AF00EFF00E0002043
:101E000007B0F0BDF0020300D4D102007A3F030016
:101E1000F7B5CC1CA400071C201C0E1C019226F058
:101E200030FD221C051C054B4760866003600C3AA0
:101E300001990C302AF03EFC281CFEBD90D1020016
:101E4000F0B587B0039205910D9A0399051C541AB9
:101E50000CAA12782021101C884305D0302A05D006
:101E60000CAA0292012204E0224A00E0224A0292D5
:101E70001022019280221A4005D0E30F1B195B103B
:101E8000E71A1C1C03E001210B4012D11F1C002C7F
:101E900012DD261C019B04969E4200DD04936B68B4
:101EA00028680299049A9847049BF61A002EF1DCE0
:101EB00003E0271C141C00E00024039B002B06D029
:101EC0001A1C28686B6805999847039BE418002F33
:101ED0000DDDE419019B3E1E9E4200DD1E1C28689C
:101EE0000299321C6B689847BF1B002FF2DC201C44
:101EF00007B0F0BDCE3F0300BD3F0300F0B593B087
:101F00001F1C18AB10CB05901B780D1C161C0793DB
:101F1000CB070BD48B0703D1814B0A689A4205D0BB
:101F2000281C01F08DFB01254000054381231C4244
:101F300009D1079B302B06D11A9B1B9A934200DADA
:101F40001A9200231B93281C22F017FB0AAA131CC9
:101F500000280DDDA30703D52B231370123B05E0EA
:101F6000131C620704D520221A70192304AA9B1897
:101F7000E20618D5022E03D130221A707A1C10E026
:101F8000082E08D130221A70A20501D401330AE0CC
:101F90003A1C0E3205E0102E05D130221A703A1C80
:101FA00017325A70023300220AA91A705B1A06937C
:101FB000A30600D52C320EAB0B9310230C930023F9
:101FC0001B990D93012901DD40210C4304A9CB7518
:101FD000FBB20096610614D5002102930191039291
:101FE0002B1C0BA80CA90DAA02F040F90378061CC3
:101FF0002D2B15D104AAD3750D9B0136013B0D93F2
:102000000EE00AA90191029303922B1C0BA80CA9C4
:102010000DAA02F02BF91B9B061C012B4BDC02E0E6
:102020001B9B012B6ADC00273D1C630621D5172171
:1020300004ABC9180B78002B0AD0002301220093AF
:1020400001920598FFF7FCFE1A9B2D18013B1A938D
:10205000069B002B0DD000230122009301920598CE
:10206000069A0AA9FFF7ECFE1A9B069A2D189B1AEE
:102070001A931B9B012B00DD1A93079B0598009375
:102080001A9B311C01930D9A231CFFF7D9FE2D18C2
:10209000002F09D0202300220093019705982149A1
:1020A000131CFFF7CDFE2D180B980EAB984234D0C1
:1020B00026F00EFC31E00D9A1B9B93421CDB1A9A12
:1020C000934206DA0127D51A274004D02F1C002599
:1020D00001E000273D1C01239C43002D09D0002274
:1020E0001F330093019505980E49131CFFF7A8FEB6
:1020F000051C3023079398E7131CE0E70D9A1B9B00
:10210000934200DA131C172204A952181278511EA8
:102110008A419B18069A9B18D1E7281C13B0F0BD82
:1021200098D602006A4F0300F0B5071C00248DB05A
:1021300005920D1C2B78002B09D18D420BD96E1AFC
:102140003868321C7B689847A419291C03E0252BAA
:10215000F3D00135EEE70B78002B00D134E12023DA
:102160000026013109930B78002B12D02D2B01D1C1
:102170002C3B02E02B2B02D1293B1E430FE0202BEE
:1021800001D11C3BF9E7212B01D1193BF5E7302B9D
:1021900002D00023069304E0402209931643013144
:1021A000E1E70B781A1C303A092A07D80A22069868
:1021B00001314243D318303B0693F2E708912E2BAE
:1021C00027D14B782A2B05D00B1C01330893002311
:1021D00007930CE0089B02330893059B1D1D1B68A9
:1021E0000793DB43079ADB171A40079215E0089B19
:1021F0001B781A1C303A092A09D80A2207994A433F
:10220000D318303B0793089B01330893EFE7059DF4
:1022100003E00123059D5B420793089B1B786C3B01
:1022200059425941089B5B1808931B780493002B73
:1022300000D1C9E0642B00D187E013D8502B00D126
:1022400091E004D8453B022B00D89CE0B2E0049B0F
:10225000622B1AD032D8582B00D0ABE02B1D05933F
:10226000412383E0049B712B34D005D8672B00D821
:1022700089E0702B77D09DE0049B752B58D0782B8C
:1022800071D0732B00D095E036E02B1D05932B68A1
:10229000002B07D0099B381C0093069B4C490193E7
:1022A000042206E0381C0522099B4A490093069B3C
:1022B0000193331CFFF7C4FD241882E02B1D059306
:1022C0002B680BA90B70099B381C0093069B0122FD
:1022D0000193EEE72B1D0BA92868059327F00EF854
:1022E000079B011C013301D10B9B0793099B381CF1
:1022F0000093069B019311E02B1D2D680593002D83
:102300000ED0079B013303D1281C2AF0F5FA079061
:10231000381C291C099B0093069B0193079AC8E768
:10232000099B381C0093069B2B4901930622C0E7AA
:102330002B1D059361230093099B01960293069B35
:10234000381C0393296800220BE02B1D05936123A1
:10235000381C01220093099B01960293069B03936C
:1023600029680A230CE02B1D059361230093099B28
:10237000381C0293069B00220393102301962968C0
:1023800021F0C7FF98E7072307359D432B1C2868DA
:102390006968083305931AF05FFB099B011C0093E1
:1023A000069B381C0193079B049A0293331C22F06E
:1023B0001FF881E73868089901227B689847013443
:1023C000059508990131B4E6201C0DB0F0BDC0465A
:1023D000AB3F0300B03F0300B63F0300054B0028AE
:1023E00005D00023022802D101224B001343181C00
:1023F0007047C046ECE7020008B5024921F07BFFB8
:1024000008BDC0469DA60300002805D0012809D1BB
:102410008B685B00184306E08B680348002B02D1F1
:10242000024800E000207047A8E70200ECE7020045
:102430007FB5041C0122081C01A901F0C1FA002289
:10244000217940200CF0A0FB061C0298311C17F0EB
:102450005DFB6268051C130A834208D2A368C11899
:102460007143E06826F023FA2379E06003E01B1A49
:102470001B02D2B21343321CA06863607043E3684E
:102480006A43181801992AF015F9A36802485D19E2
:10249000A56004B070BDC046D4D10200F7B5FF25D9
:1024A0004668041C0191AE431DD10179321C4020C5
:1024B0000CF06AFB6368071C1D408023A1681B01A8
:1024C0001D43083141436560E06826F0F0F9636818
:1024D000E0601A0AA368013A01337A435F43311C72
:1024E000C0192AF004F92079019BE168A2680CF078
:1024F000A5FCA36803480133A3606368013BFF3B6D
:102500006360FEBDD4D1020010B5041C102026F07B
:10251000CAF9024B4460036010BDC0463CD20200C1
:1025200070B50A79041C0D1C002A09D1194921F043
:10253000E2FE201CE968AA6801230AF0CBFA23E036
:10254000154921F0A4FFAB68002B1DD0201C1349B6
:1025500021F0D1FE0026AB689E4211D2002E03D09E
:10256000201C0F4921F0C7FE321CE96828790CF0C5
:102570002DFB0122011C201C00F092FF0136EAE72E
:10258000201C084921F0B7FE201C074921F0B3FEAA
:1025900070BDC046DF3F0300EB3F0300F63F030082
:1025A000E03D0300AAC80300EF410300F8B5071C93
:1025B0000D1C4020391C00220CF0E6FA061E05D145
:1025C0000C490D4823F03DF90FF03DFF102026F097
:1025D00058F90A4B041C002F00D0094B281C23601B
:1025E000FBB2A5607043636026F04BF9E060201CED
:1025F000F8BDC046FA3F03005CDE0200B4D2020020
:1026000078D20200F0B5061C8BB00D1C141C1228E9
:102610003AD034D8052800D087E0081C012204A94C
:1026200021F040FF201C07A9012201F0C9F9069BF7
:10263000002203936B464020197B0CF0A5FA061C80
:102640000898311C17F062FA069B071C03936B462F
:10265000A968187B7918FFF7A9FF059B041C1A1CB1
:102660000499C06803932AF025F8321CE3680598A2
:102670007A43181807992AF01DF8231C56E01B28E6
:1026800039D01F2806D050E0081C111CFFF7D0FEDF
:102690002B1C4BE0101C07A9012222F033F8032267
:1026A000002814D0234B154240D1234A2968914277
:1026B0003CD104A9281C012221F0F4FE0123049836
:1026C00000930599079A089B25F071FF28E0E3071E
:1026D0000ED4144203D1194B22689A4208D0032227
:1026E000144B2240022A21D1154A1440062C1DD039
:1026F0001448FEF733FD081C012204A921F0D2FE84
:10270000201C07A9012221F0FDFF0A4B00280DD053
:10271000089B301C00930499059A079B21F037FD14
:10272000094B002802D1034B00E00023181C0BB01A
:10273000F0BDC046ECE70200B4D2020098D6020019
:10274000070080FF6A4F0300A8E70200F0B5051CF0
:1027500087B00E1C002808D08B0724D10B68264AAE
:10276000934202D0254A93421DD1301C03A9012275
:1027700021F0C8FF002816D00022291C40200CF0B0
:1027800003FA061C0498311C17F0C0F9071C281C1A
:10279000391CFFF70BFF321C041C7A430399C068F5
:1027A00029F088FF24E0301C01F066F8071E00D0F5
:1027B0004710391C281CFFF7F9FE041C301CFDF7DC
:1027C0001FFF002600900098FDF768FF031E0FD042
:1027D000002F04D1201C191CFFF760FEF3E7721CC8
:1027E0000192281C321CE1680CF028FB019EEAE7EC
:1027F000201C07B0F0BDC04698F20200B4D202001F
:1028000070B586B0002A44D00324161C051C0A1C8F
:102810000C402CD1204B0968994228D1111C8068AA
:1028200003AAFFF7B9F8002802D11C48FEF796FC6E
:10283000221C042E2DD1297940200CF0A5F9049BEF
:10284000061C28790093039B0193019A009B991A17
:10285000FFF7ACFE041C0399049AEB68521A71430B
:1028600072435918C06829F025FF221C11E0A9689D
:102870002868002300F0BCFFE968021C2879042EB8
:1028800003D10CF0A3F9021C03E0331C0CF0D6FAC0
:10289000034A101C06B070BDF00203007A3F03002B
:1028A000D4D1020037B51D1C00230C1C0093081C5A
:1028B000111C1A1C01330EF001F8002C04D1201C4D
:1028C000211CFFF773FE1BE02968CB0705D48B079B
:1028D00013D10C4B0A689A420FD1081C00F0B0FECD
:1028E000051C0020291CFFF761FE041C0021C068A4
:1028F0002A1C29F0FCFE201C02E00020FFF726FF26
:102900003EBDC04698D6020010B5102025F0B9FF94
:10291000041C034B08C024F061F9201C10BDC04604
:1029200098D6020038B5052827D80D1C17F0D0F826
:1029300005250D03141C081C20E0081D24F07AFA5C
:10294000031E0F481AD00F4818E0081D24F091FD0F
:1029500001214000084311E0FFF7D6FF291D041CA8
:10296000043024F09DFA06E0FFF7CEFF291D041C79
:10297000043024F0A5FA201C00E0002038BDC04639
:10298000A8E70200ECE7020038B5051C83070CD16C
:10299000104B02689A4208D1FFF7B6FF041C291DAC
:1029A000043024F072FA201C12E0281C00F048FECB
:1029B000C0231B06984205D180200021C00521F0CC
:1029C000F0FD05E0C317C01858400123400018432C
:1029D00038BDC04698D6020038B5051C1AF0D4FEA2
:1029E000012802D10F48104903E0002805D10F4803
:1029F0000F4903F0DBF80FF026FD281C21F0D6FE6E
:102A0000002806D1281C18F037F901244000204383
:102A100007E0FFF779FF041C291C043024F05DF95E
:102A2000201C38BD88E30200074003005CDE020082
:102A30002040030007B5C30701D540100DE0043066
:102A400001A905F02BF9002801D0019805E0034900
:102A5000034822F0F6FE0FF0F6FC0EBD39400300ED
:102A600088E30200F0B58DB00190012008400D1CF4
:102A7000171C041E07D04B1003A802A9022224F041
:102A8000ECF803AE08E003230B4065D19A4A0968CD
:102A9000914200D025E12E1DFB0707D57B1003A82E
:102AA00002A9022224F0D9F803AD1AE003231F4241
:102AB00005D1914A3968914201D13D1D11E03B4059
:102AC000022B00D011E18D4B3B40062B00D10CE1D5
:102AD000301C24F021FD3A1C011C019801F05AFD24
:102AE00008E1019B092B01D0162B16D1281C24F0DC
:102AF000A1F900283DD1301C24F00EFD041C281C37
:102B000024F00AFD011C201C17F014FC03230224EE
:102B100098437B4B0443E018ECE0019B182B00D951
:102B2000BAE0FFF7F1FE041C019816F0D1FF6A70BD
:102B30006476760D10171DDC478E946A7064767685
:102B40000D10171DDC478E00201D311C4FE0201D8D
:102B5000311C2A1C24F086FA201CCBE0201D311CDD
:102B60002A1C24F0C0FBF7E7281C24F063F9002896
:102B700002D06448644957E006A8271D24F02EF8C7
:102B8000321C2B1C381C06A904F032FF2A7833783B
:102B90005340DB070ED506A824F04CF9002809D1D4
:102BA000012109A8494224F04EF8381C391C09AA11
:102BB00024F01DFA06A824F01DF8CDE7281C24F007
:102BC00039F90028D5D109A8271D24F007F8321CAF
:102BD0002B1C09A8391C04F00BFF09A824F00AF8E3
:102BE0002A7833785340DB07B6D5381C391C2A1CA9
:102BF00024F0FDF9B0E7201D311C2A1C24F07AFADC
:102C0000AAE7201D311C2A1C24F0F4FAA4E7201D99
:102C1000311C2A1C04F078FE9EE7381CFFF70AFFDF
:102C2000021E05DA39483A4922F00BFE0FF00BFC80
:102C3000019B201D311C032B01D0102B02D104F06D
:102C4000F7FD89E724F073F986E7201D311C2A1C63
:102C500024F0CCFB80E7281C24F0ECF8002888D175
:102C6000FFF752FE271D0190321C2B1C0430391C2B
:102C700004F0BEFE2A7833785340DB0704D5381CB5
:102C8000391C2A1C24F0B3F9019B09A902200993DD
:102C90000A940EF009F92DE0301C291C24F0CFF81D
:102CA000019A031C193A0020042A23D8101C16F09C
:102CB0000FFF0307130B0F001648002B1ADA0EE064
:102CC0001448002B0BDC15E01248002B12DC06E048
:102CD0001048002B03DA0DE00E48002B0AD10E48F5
:102CE00008E0181C06E0002004E00198291C3A1CAA
:102CF00001F084FB0DB0F0BD98D60200070080FF04
:102D000000008080B8E20200C53C03005CDE0200E7
:102D10008B3C0300ECE70200A8E70200A12300219E
:102D2000024A5B000248D1527047C046A82E0020DC
:102D3000D4D10200A1230121024A5B000248D152F2
:102D40007047C046A82E0020D4D10200A123044A17
:102D50005B00D35A0348002B00D103487047C0469C
:102D6000A82E0020A8E70200ECE7020008B507F053
:102D70004FF8014808BDC046D4D1020070B5061C0A
:102D8000081C22F063FB051C24F0DBFF041E06D1A7
:102D900008492A1C084802F009FF0FF054FB301CB8
:102DA00025F041FA031C0121201C1A1CFEF78CF9A6
:102DB00070BDC0466640030004E2020010B5041C6A
:102DC00022F044FB25F059F9031C012083420CD06A
:102DD0000649201C22F056FB201C22F037FB25F070
:102DE0004CF9023843425841400010BDB74003003F
:102DF000F0B59DB000AF0C68032807D9CB6800255B
:102E0000FB60042805D00D696D1002E00025A24B7F
:102E1000FB601C23201CF9180AF0B6FB7861002D1A
:102E200056D09E4C6E2160680FF06CFA061C6068EC
:102E300096210022043002F0C7FC1823FA18D1189A
:102E4000041C301C0AF0A0FB3B6B011C013DC018A8
:102E5000002C0CD188420AD9013803782E2BF9D1E5
:102E600005E0884203D9013803782E2BF9D1013DC2
:102E7000F7D2FE69441A251C002E01D0751C2D19AD
:102E80002B1C6A460E33DB08DB00D31A9D46181C48
:102E9000221C3B6129F00EFC002E08D02E233A693B
:102EA0007969135501341019321C29F003FC386973
:102EB000291C0EF06BFF012804D17949794822F0D2
:102EC000C0FC5FE006243B69C0000443FD617B61F8
:102ED000201C09F0C3FE09F0E5F8051E15D02E21CF
:102EE000786929F0F1FC011C281C002900D1D0E0F0
:102EF000694BFA689A4200D0CBE07B69C91A181C6A
:102F00000EF044FF09F0CEF8C3E018220823BA18E7
:102F1000D0181033FA184021D21822F03CFA0126BA
:102F2000BD603D612C1C04E07B699B5D2E2B05D0B0
:102F30000136FB699E4200D9A5E0F5D1311C7869C4
:102F40000EF024FF18220823BA183860D01822F097
:102F50004BFA18220823BA18002815D1D018321CB1
:102F6000796922F0D8F918220823BA18D018FFF787
:102F700025FF78607B68002B13D14A484A493A689C
:102F800002F014FE0FF05FFAD0182F2102F05EF865
:102F90007B693A691820991808233818B21AC018A2
:102FA000DFE7386809F07EF8041E57D1386809F069
:102FB0003FF8FB69041C9E4208D13C4BFA689A42D8
:102FC00004D180686E215E2226F04CFA7B68012BCA
:102FD0003DD118220733BA18D01822F0FEF9182272
:102FE0000823BA187860D01822F0FEF90022011CDC
:102FF000786809F011FE1221021C201CFDF7DCFA92
:1030000018220823BA18D0182F2102F01FF818220E
:103010000823BA18D018264922F034FA18220823B7
:10302000BA18D01822F012FA25F027F8022806D193
:1030300018220823BA18201CD118FFF79FFE182267
:103040000823BA18D0180C2122F05BFA06E01822E7
:103050000823BA18201CD118FFF790FE002D0AD0C3
:103060003A697B69B11A98180EF090FE221C011C77
:10307000281CFDF7A1FABB68002B00D1BC60731CB3
:103080003B61251C54E7044BFA68201C9A4200D18E
:10309000B868BD461DB0F0BDD4D10200A82E0020F6
:1030A0007B40030004E202009A400300ECE70200C8
:1030B000AF40030008B500F027FB19F079FC0022AF
:1030C000074B18F0EFFD074B074A18F0ADF919F060
:1030D000C3FC03239843013B1843044BC01808BDAD
:1030E00000806640FB210940182D44540000808078
:1030F00008B500F009FB19F05BFC084A084B18F012
:10310000D1FD084B002218F08FF919F0A5FC03231C
:103110009843013B1843044BC01808BD182D445474
:10312000FB210940008066400000808008B500F067
:10313000EBFA034B184002231843024BC01808BD9A
:10314000FCFFFF7F0000808008B500F0DDFA1AF078
:103150001BFB034B002800D0024B181C08BDC046C7
:10316000A8E70200ECE7020008B500F0CDFA1AF07B
:103170000BFB034B012800D0024B181C08BDC046B6
:10318000A8E70200ECE7020008B500F0BDFA1AF06B
:10319000FBFA034B012800D8024B181C08BDC0469F
:1031A000A8E70200ECE702001FB50023019300F03E
:1031B000ABFA01A91AF058FB0322031C0220934327
:1031C000064903435B180293019B934303435B1837
:1031D00002A903930DF068FE05B000BD00008080D9
:1031E00038B50D1C00F090FA041C281C00F08CFA75
:1031F00017F042FD011C201C1AF012FB0323984318
:10320000013B1843014BC01838BDC0460000808008
:103210001FB50023019300F077FA01A91AF0D4FA40
:10322000032302249843074B2043C01802900198BF
:1032300021F0C6F902A90390201C0DF035FE04B060
:1032400010BDC0460000808038B50D1C00F05CFA4F
:10325000041C281C00F058FA011C201C1AF090FDD8
:1032600003239843013B1843014BC01838BDC046A7
:103270000000808038B50D1C00F046FA041C281CA4
:1032800000F042FAC00FC307600040081843032350
:103290009843013B1843014BC01838BD00008080A3
:1032A00038B50D1C00F030FA041C281C00F02CFA74
:1032B000011C201C1AF0ECFC03239843013B18432B
:1032C000014BC01838BDC0460000808008B500F032
:1032D0001BFA1AF05FF803239843013B1843014B94
:1032E000C01808BD0000808008B500F00DFA1AF083
:1032F0007DFC03239843013B1843014BC01808BDD4
:103300000000808008B500F0FFF91AF01DFC0323CF
:103310009843013B1843014BC01808BD0000808052
:1033200008B500F0F1F91AF08BFB03239843013B39
:103330001843014BC01808BD0000808008B500F09C
:10334000E3F91AF03BFB03239843013B1843014B7D
:10335000C01808BD0000808008B500F0D5F91AF04B
:1033600081F903239843013B1843014BC01808BD62
:103370000000808008B50349034802F017FC0FF0F5
:1033800062F8C046BB4003005CDE020070B5061C5C
:1033900008680D1C00F0B8F90021041C16F092FD1D
:1033A000002801D0FFF7E6FF201C1AF04BFD041C9B
:1033B000012E06D1032302209C430D4B0443E01849
:1033C00015E0686800F0A0F90021051C16F07AFDF0
:1033D0000028E7D1281C1AF035FD011C201C16F02E
:1033E000A9FF032302249843014B2043C01870BD5A
:1033F0000000808008B500F087F91AF04DFC032327
:103400009843013B1843014BC01808BD0000808061
:1034100038B50D1C00F078F9041C281C00F074F974
:10342000011C201C1AF08CFD03239843013B184318
:10343000014BC01838BDC0460000808010B500F0B8
:1034400063F90021041C16F033FD002801D0FFF7BA
:1034500091FF201C1AF01CFF03239843013B1843E3
:10346000014BC01810BDC04600008080084BC20749
:103470000BD4084A084B0240062A06D00323034017
:10348000022B01D1054B00E00368181C7047C046B1
:1034900098D60200070080FF84D00200F8D6020010
:1034A000F8B50D1C041C161C0EF0D4FB281CFFF7ED
:1034B000DDFF8768031C201C002F03D0291C321C51
:1034C000B84703E002495A6820F0E1FFF8BDC04662
:1034D000CD40030008B5031C0A1C0248191CFFF765
:1034E000DFFF08BDCCD10200F7B5051C081C0E1C7F
:1034F00022F0ABF900282AD0301C694601AA02F05C
:10350000FBFB009B002B22D0281C164920F0F3FE69
:10351000009C154BE71EE418A400002F17DB019A4E
:10352000281C13195B681259104920F0B0FF019B49
:10353000281C1B199A68002A03D10D4920F0DBFED4
:1035400002E00C4920F0A3FF033F0C3CE5E7281CF8
:10355000311C0222FFF7A4FF281C054920F0CBFEF6
:10356000F7BDC046D2400300FDFFFF3FF640030019
:10357000DC9F03000B41030010B5041CFFF776FF2E
:10358000054B0069984203D0431E9841C0B202E047
:10359000201C20F09EFD10BD8916000038B5051CCA
:1035A0000C1C01208D4241D0214B9D4201D10020B5
:1035B0003CE09942FBD001231D4204D01942F6D1D0
:1035C0002B1C0D1C1C1C2A1C1A4B1A40062A05D049
:1035D000AA0711D1184A296891420DD12340062B20
:1035E00005D0A307E3D1144B22689A42DFD1281CEF
:1035F000211C09F079FF19E02340062BD7D0A3073F
:1036000003D10D4B22689A42D1D0281CFFF72EFF20
:103610008369002BCBD01B20291C221C9847002833
:10362000C5D0064BC01A42424241D0B238BDC04656
:10363000D4D10200070080FF84D00200A8E7020076
:1036400008B5104B984219D00F4A0123904217D069
:10365000184201D0184114E0830706D10B4B0268D1
:103660009A4202D1FFF7E6F90BE021F035F808495C
:10367000021C084802F09AFA0EF0E5FE002000E075
:10368000181C08BDECE70200A8E7020098D602006B
:10369000144103004CE3020008B5C30705D48307B7
:1036A00006D1054B02689A4202D120F0C6FF01E024
:1036B000FFF7C6FF08BDC04698D6020038B50F4BCD
:1036C0000124984202D100230B6014E00C4B984275
:1036D00001D10C600FE0031C234002D040100860B1
:1036E00009E0820708D1074A0568954204D10D1CFC
:1036F000FFF7A0F92860231C181C38BDECE7020076
:10370000A8E7020098D6020008B5184B984228D0C6
:10371000174B984227D0C30703D5401017F0CCFAB7
:1037200023E00323184206D1124A0168914202D1D4
:1037300020F08CFF19E00340022B09D10E4B03400F
:10374000062B05D0FF23DB05C018032398430CE0AC
:1037500020F0C2FF0949021C094802F027FA0EF0C6
:1037600072FE002001E0FE20800508BDECE70200AB
:10377000A8E7020098D60200070080FF2C41030052
:103780004CE3020010B583070CD103680A4CA34236
:1037900002D125F0D8FC0EE0084CA34202D124F05F
:1037A0006FFE08E020F098FF0549021C054802F072
:1037B000FDF90EF048FE10BD84000300ECEE02009F
:1037C000464103004CE3020013B50C1C01A9FFF7AE
:1037D000D9FF019BA34206D00349221C034802F0F3
:1037E000E5F90EF030FE13BD694103005CDE020016
:1037F000F7B5051C0C1C171C1E1CD30702D557104F
:10380000019710E0101C01A9FFF758FF00280AD10A
:10381000381C6C6820F060FF1349031C221C1348FD
:1038200002F0C4F91BE0019B002B08DA1B1901937D
:10383000002E0AD0002B04DA0023019311E0002EA1
:1038400003D0A3420DD901940BE0019B002B01DBB7
:10385000A34206D3064807496A6802F0A7F90EF0AA
:10386000F2FD0198FEBDC046964103004CE3020004
:10387000B8DF0200BA41030010B5041C830710D161
:103880000D4B02689A420CD10C4B0340062B03D11E
:10389000C00825F029FD00E080680123400018439E
:1038A00008E0201CFFF7E2FD4369181E02D001204A
:1038B000211C984710BDC04698F20200070080FF07
:1038C000174A70B50023904227D0164CA04201D170
:1038D000012322E0144A002390421ED00126064014
:1038E0009E4201D0401015E0051CFFF7BFFD436963
:1038F000002B09D0301C291C9847002804D0031B3A
:1039000058424341DBB208E0281CFFF7B5FF00280E
:10391000DED00138431E9841C3B2181C70BDC046AA
:10392000ECE70200A8E70200D4D1020010B5041CA5
:10393000FFF7A2FF002809D1201C20F0CDFE04498A
:10394000021C044802F032F90EF07DFD10BDC046A5
:10395000D04103004CE3020070B5041C0D1C161C82
:10396000FFF784FD036A002B05D0201C291C321CA4
:10397000984700281AD10E4D201C002E05D120F0AA
:10398000ABFE0C49021C281C06E0042E08D120F0D6
:10399000A3FE021C281C084902F008F90EF053FD92
:1039A00020F09AFE0549021C281CF5E770BDC046B0
:1039B0004CE30200F14103001C4203003D420300BE
:1039C00008B520F09FFE002805D10349034821F0E7
:1039D00038FF0EF038FD08BD6A4203004CE30200D8
:1039E00030B58DB0051C68460EF012FD011E0ED1DB
:1039F0002A1D012020F051FA0122EB68041C5B1003
:103A000001335B001343EB600EF018FD0AE00198F0
:103A1000064A03680024934204D0054A934201D029
:103A20000EF011FD201C0DB030BDC04608E10200B3
:103A3000B8DF020010B5041C102024F022FF044B54
:103A4000036023684360636883600123C36010BD23
:103A5000DCD5020038B50523041C094A094D10685D
:103A6000434309481B199B0018582B681460181809
:103A70000F2319400901286001F054F938BDC046F0
:103A80002C0100207427002018D60200A839031C3E
:103A900000B5081E06282ED816F01AF8040A1015CC
:103AA0001B2027009A18E223DB00D218107826E0AA
:103AB000C4329200D05C8006800E20E0C4329200B6
:103AC000D05AC00403E0C4329200D0580003400E24
:103AD00015E0C43292009A1890780AE0C43292003D
:103AE0009A18D0780007000F09E0C43292009A18A3
:103AF000D078000903E00020014A024B1A6000BDA3
:103B0000564A030010000020A83910B5041C081EF6
:103B1000062846D815F0DCFF040A131E29333B00A3
:103B2000E221A218C900521813703DE03F20C432B0
:103B30009200115D034081430B43135534E07F2114
:103B4000C43292000B409901105B184B03400B43A9
:103B5000135329E07F21C43292000B4010591449BD
:103B60005B0301400B4313511EE00F21C43292004E
:103B7000A21890781B0101400B43937014E00F20B2
:103B8000C4329200A218D1780340814306E00F218D
:103B9000C4329200A218D0781B0101400B43D370AD
:103BA00002E0044A044B1A6010BDC0463FE0FFFF2C
:103BB000FF1FF0FF614A030010000020F0B585B040
:103BC00003930723D2B21340013BDBB20F1C042B3B
:103BD00002D92B4C2B490C602B49CE5C07211B02D0
:103BE0008A43019308D1294BC55C2D09ED43EBB203
:103BF0003D7800932C1C1FE0D443E4B20825244BED
:103C0000019A1B199B5C5F00FFB2DB0904D0022004
:103C10000521FFF71FFF05E00120311CFFF71AFF08
:103C2000002EF4D0013DEDB23B1C002DEBD1013450
:103C3000E4B2002CE2D120E00826154B019A1B19B2
:103C40009B5C5A00D2B20292DB0902D003201A21F7
:103C500001E004200621013EF6B2FFF7FBFE029BC5
:103C6000002EEED1009B0134E4B25B1B1B19DBB2CA
:103C7000002BE1D1009BED1A3D70039805B0F0BD1B
:103C80006D4A030010000020804D0300190700005A
:103C90008F4203000022F0B5051CFF248BB008AB57
:103CA0000191DA71231CC4339B00EB189978604EA4
:103CB0000A09B05C0F220001114001439970D978C4
:103CC0000807000F375C9143174039430809305CFF
:103CD0000A4000010243DA70013CE3D2E223DB0038
:103CE000EE5CB308F31ADBB20693524B1B68002B51
:103CF0000BD081231B01E818C4239B00E918E223A1
:103D0000DB00EA18019B0DF089FA00244823271CE8
:103D100004930394029481222B1912019B181B789F
:103D200005930723059A9A4307920BD008ABD91D38
:103D3000281C231C059AFFF741FF019B0230C4B2E7
:103D4000023B32E03C48029BC35C9C46231C62461B
:103D5000C4339B00EB189978DB7809091143374A83
:103D6000515C039A805C1A07120F1043334A1B09F7
:103D7000105C40183249C95D0B43D15C01234118E6
:103D8000FF2801DC6B461B7FC9187839C9B20909C5
:103D90000020FFF75FFE049B013BDBB20493002B86
:103DA0000AD1019B0134E4B2013BDBB20193019BD8
:103DB000002B3BD02B780493013EF6B2002E0CD1A1
:103DC000E22200272B19D2009B181E780397B30814
:103DD000F31ADBB2069302979DE7069B013BDBB229
:103DE0000693002B02D1059B002B16D1221CC43256
:103DF0009200535D02999B069B0ECB18DBB2029397
:103E0000535B0399DB045B0ECB18DBB2039353596E
:103E10001B035B0EFB18DFB27DE708ABD91D281C26
:103E2000231C059AFFF7CAFE041CC9E70BB0F0BDBE
:103E3000DB4A030060010020BC4D0300DF470300A4
:103E40003C4B0300064A125C002A05D0054A135C6D
:103E50004B43D811C0B201E0034A105C7047C04622
:103E6000DC4C0300854D03008F470300064A125CBB
:103E7000002A05D0054A135C4B43D811C0B201E0BB
:103E8000034A105C7047C046DC4C03007F490300C6
:103E9000304D0300F0B5037A8BB07F2B00D14DE19C
:103EA000031C071C0025041C0933FF330837099342
:103EB00000953E787F2E03D1002302930093DEE02D
:103EC000012E02D1201C311C03E0022E05D1201C42
:103ED000FF21009A2B1C20F02EFC994ABB78301C45
:103EE000D3185B780093FB780193A178FFF7AAFFC2
:103EF0003F2318400290E178301CFFF7B7FF7F2383
:103F0000904A1840925D03901A408F4B04929A5D3C
:103F10000F231A4005928D4A925D1A4006928C4AF0
:103F2000925D1A408B4B07929B5D08937B78EB1850
:103F3000DBB29C462A1C3F21C4329200135D8B43A6
:103F400002990B431355105B039B83499B0101406E
:103F500019431153049B10595903804B18400B1CF3
:103F600003430F20135105991E0C06400901A218A6
:103F700031431B0E069E9170834307993343090119
:103F800018400843D070694620208122091863191F
:103F9000097812019A181170E222D2009B18019937
:103FA000009A01355218EDB21A706545C2D1099BCD
:103FB00004379F4200D07CE77EE76949CD5C8E5C88
:103FC0006849AE4264D18D5CCB5C0493039B597A03
:103FD000009B5918CBB20093049B5B19DBB206938C
:103FE000023B1B0647D4A826009B5D1BEBB2059342
:103FF000A82E55D1039B311C5F7A5A7B7F0852084B
:10400000D3190193009B201C9A18D2B2DF1BFFF733
:104010003DFDFFB2051C311C201C3A1CFFF736FD8C
:104020002D1AEDB27F232A1C6DB29A43EB17E818C4
:1040300058400199079215F0DFFE281CCBB2019978
:10404000089315F0F3FD0025C3B2059F09933A1CB0
:10405000311C201CFFF71AFD019A0599099B0137B5
:104060005218C318FFB2D2B2DBB2BA422BD101361A
:10407000F6B2AF2EBCD1029B0133DBB20293029B9E
:104080009B00E31803931A7A1B7B7F2B95D133E0B7
:104090003548AE4201D2C55C96E78D5C835C94E7FF
:1040A000049B009A311C9A18D2B2201CFFF7EEFC38
:1040B000311C051C059A201CFFF7E8FC069B2D1AF5
:1040C000EDB20193AEE7089AAD18019AEDB29542B0
:1040D0000CD3AD1A6A46127FEDB252B2002A03DB4E
:1040E000002B03D0013300E0013BDBB2201C311C6C
:1040F0003A1CFFF709FDAAE7029B02339B00E31875
:104100005978009B59186368C9B2002B03D0201C52
:10411000FFF7C0FD12E0E222D200A0181A1CC43240
:104120009200125D05789206D20EAA1A02708022C1
:104130000133013052009342F0D1E8E70BB0F0BDFB
:10414000D04A0300DF4803003C4C0300804A0300D0
:104150002F490300EC4A03003FE0FFFFFF1FF0FF81
:10416000B6490300064A03008C4C03007FB54B6838
:104170000E1C5C106846211C21F005F9029D0021EF
:10418000281C221C28F0B3FA01213068014004D118
:10419000221C2B1C20F0ECF908E0042C00D904248C
:1041A00043100021201C2A1C24F07CFC6946024894
:1041B00008F0FCFC04B070BD98F20200F0B50025D8
:1041C00085B0081C0C1C1E1C111C00952A1C022307
:1041D0000CF074FB0120AC423FD0844228D13068FF
:1041E00020423AD103230340AB4203D11C4A016869
:1041F000914232D01B4A0240062A06D0002B0BD136
:1042000003689A69184B9A4206D103A909F0BCF9D0
:1042100000220399131C18E00323021C1A40022AEF
:1042200016D1FF22D20580189843FEF7D5FB14E083
:1042300003A9306809F0A8F9071C7068039CFFF710
:10424000FFF9211C021C2B1C381C0CF0FDFB04E0A8
:10425000FFF7F6F901234000184305B0F0BDC04652
:1042600098D60200070080FF69DB0000F0B58DB032
:10427000099214AA1278041C0B9215AA12780F1C2A
:104280000892DA0700D494E0181CFFF7D9F900234C
:1042900005900793002803DA434205932D230793E3
:1042A000129B0026023B1E2B16D8524B129A20203E
:1042B000995C15F02BFC089BC5B2B34204D0681C76
:1042C000032115F023FC061C1398002801D028F0C8
:1042D00013FB0335AE1936183B689E4204D9301CD7
:1042E00024F0CFFA20603E6023689F1906930023D4
:1042F0007D1E2B70059B002B03D1023F30333B709A
:1043000033E00A950598129915F076FD0F1C059873
:10431000129915F08BFC3B1C05903033092F02DD00
:104320000B9B0A3BFB186F1E3B70089B002B16D0A3
:10433000059B002B19D0069B9F4216D90A9BDB1BBD
:10434000032B01D03D1CDDE76B4620229B181B7818
:10435000AF1E3B70069B9F4207D90A97F2E7069B68
:104360009F4202D9059B002BECD1139B002B0ED052
:10437000181C28F0C1FA069B381A984207D9002366
:10438000139AD25C002A2ED0C2540133F8E7079B5F
:10439000002B06D0069B9F4203D96B461B7F013F33
:1043A0003B702368381C9E19F61B099B013E1E605A
:1043B0001EE09A0710D1104A196891420CD1129A46
:1043C000391C0092139A01920B9A0292089A039256
:1043D000099A20F0A4F80BE0002322681370099AD0
:1043E0002068136004E0079B071C002BD5D1D8E799
:1043F0000DB0F0BDBC4E030098D6020010B50C1CE9
:104400001449031C8A4202D1211C01221EE01249D8
:104410008A4202D1211C032218E00020072B17D169
:104420000E4B1340062B0ED0930711D113680C4985
:104430008B4208D00B498B4205D00B498B4202D0EE
:104440000A498B4204D1111C0720221CFCF766F993
:1044500010BDC046ECE70200A8E70200070080FF9D
:1044600084D0020098F2020084000300ECEE020007
:10447000FF2310B50324DB05CB18A343021C181C33
:10448000A24213D0042A09D00021002A0ED115F02F
:1044900009FD0749002809D0064907E080220220CB
:1044A00012069B18A343044A03439918081C10BD25
:1044B000A8E70200ECE7020000008080FF23DB0594
:1044C00010B5041CC818032386B098430433009326
:1044D000002302A901931022673306F0A1FC02A970
:1044E000201C1FF008FF02A82E2128F0EDF900285B
:1044F0000FD102A8652128F0E7F9002809D102A808
:104500006E2128F0E1F9002803D1201C02491FF098
:10451000F2FE06B010BDC046CF7D030030B51D1CB5
:10452000002385B00C1C0093081C111C1A1C0133BD
:104530000CF0C4F9002C21D02868124B0340062B44
:1045400006D0032318420DD10F4A0168914209D1C8
:1045500003A909F019F80023039900931A1C0CF021
:10456000FFFA0CE00340022B09D0FFF7CDF803233C
:104570009843013B1843054BC01800E0044805B0C0
:1045800030BDC046070080FF84D00200000080805C
:104590000200808070B5051C86B0101C0191FFF7E9
:1045A000B3F8041C0390681F182800D9B0E015F078
:1045B0008FFA0D10161B2C37686DAFAFAFAFAF0D74
:1045C00010161B2C3768898E93989D000198211C2A
:1045D00054E00198211C16F0D1F901908FE0019868
:1045E000211C16F099F8F8E7201C002115F05AFC60
:1045F000002805D04849494821F023F90DF023FF50
:1046000001A803A920F0FEF879E0201C002115F094
:1046100049FC0028EED10198211C15F08BFEDCE747
:10462000201C002115F03EFC0028E3D1211C01983C
:1046300019F0A6FB0021051C019015F033FC0028A1
:1046400007D0039A0023002A01DA80231B06019376
:1046500055E00021281C15F02BFC431E9841012435
:10466000039E404204400021301C15F021FC431EF3
:104670009841E4B2844242D0281C311C15F0DEFC83
:10468000ABE70198211C19F05BFCA6E7201C002178
:1046900015F008FC0028ADD101A803A920F0B2F85C
:1046A00003220220019B1E49934303435B1804939A
:1046B000039B934303435B1804A905930CF0F4FB9D
:1046C000031C26E00198211C15F0F2FB12E0019872
:1046D000211C15F001FC0DE00198211C15F0E2FBF6
:1046E00008E00198211C15F0EDFB03E00198211C66
:1046F00015F0FCFB0B4B00280BD10B4B09E00323FF
:10470000019A02209A43131C054A03439B1800E0B8
:104710000023181C06B070BDC53C0300B8E20200BF
:1047200000008080A8E70200ECE7020070B5061CDC
:104730000D1C002811DD002906DD154815F076FA5C
:104740000124864213DC11E0C020311C000615F064
:104750006DFA012485420ADB08E0002909DDC0204A
:10476000000615F063FA0124864200DB0024E4B25F
:104770000BE00024A04208D00548311C15F056FA81
:104780000123854200DB231CDCB2201C70BDC04627
:10479000FFFFFF3FF0B500270D1C85B003901E1CE6
:1047A000081C104B111C009702220CF087F8A81C63
:1047B000800024F066F8039B041C03606B1E3D1C04
:1047C0000393436033688360039B9D4207D20135A6
:1047D000AF00F059FBF714FFE719B860F4E7201CAD
:1047E00005B0F0BDFFFF0000F8B5061C10200D1C41
:1047F000141C1F1C24F052F8011E09D02C190F6044
:104800004D608D60CC60301C024A034B23F0A8FC45
:10481000F8BDC0466D4902008349020038B5151C39
:10482000041C20F009F92A1C201C024920F0B5F8CC
:1048300038BDC0461B4A020038B543790D1C002420
:10484000032B06D9836A074C9200E41AC369D35834
:10485000E418032120F0E1F84470241205708470FC
:1048600038BDC046FD7F0000F8B50023041C61710F
:1048700083608371E260036101330F1C151C436187
:10488000032906D80121836949429A00C06927F0AB
:104890002EFF0023A36223622A8C6B8CD318012283
:1048A000002B00D01A1C364E201C311C20F075F84D
:1048B000AA8C201C311C20F070F8E368201C197EA3
:1048C00020F0A4F8E368201C997E20F09FF8E368AC
:1048D000201C197F20F09AF8E368201C997F20F0B3
:1048E00095F8042F07D1636A226A201C9A1A311C9A
:1048F00020F053F803E0201C022120F07BF8311C4B
:10490000201C2A6920F049F8311C201CEA6820F09C
:1049100044F800262B8D9E420BDAEA6AF300D31886
:104920001A78032A03D19978201C20F085F80136E3
:10493000F0E7201CFF2120F07FF8042F1FD1002278
:10494000698BAB8BC9188A4219D000202E8DB042DA
:104950000CDAEF6AC300FB185F78FF0704D55F88A5
:10496000974201D15B6802E00130F0E7022306269E
:10497000DB003343666B900083510132E3E7F8BDFF
:10498000F549020013B54379012B2FD08268041C2E
:10499000002A03D0164817491FF079FD201C00217A
:1049A00020F034F86379032B13D1226AD01C98438A
:1049B000A36A20626062E362C01823F074FFE368B8
:1049C0002063588B9B8BC018800023F06CFF6063C2
:1049D0000CE0042B0AD1E368616AE26A5218197E7E
:1049E00000915869216B636B0BF04EFA13BDC04602
:1049F000CCD10200DD4E0300224BF7B5A4331B6877
:104A0000022B3ED84469A1423BD9051C836A026946
:104A100001919E1A0C1B331C23432ED00096062CAA
:104A200010D81F2E01D91F230093271E032F00D952
:104A30000327281C01211FF0DDFF009A7B0113438F
:104A4000037016E00F2E01D90F2300930E4B271E83
:104A50009F4200D91F1C0221281C1FF0CBFF80237E
:104A6000702200995B4219433B0913400B430370CA
:104A70004770009BE41BF61ACDE7AB6A2B61019BE4
:104A80006B61F7BDA82E0020FF07000038B5041C9D
:104A90000D1C01211FF0A0FF201C0F2D05D0102D93
:104AA00005D010210E2D06D102E0112100E01221C7
:104AB0001FF0C2FF0DE017211FF0BEFF0322A36A03
:104AC000201C03339343A36204211FF0A6FF014B74
:104AD000036038BDAC020300F8B5061C0D1C141EA3
:104AE000124F11D1111C1FF077FF80231B021D42B2
:104AF00003D0301C32211FF09FFF2A1C301C3A408B
:104B00003521FFF799FE0FE03A1C0A404621FFF7D6
:104B100093FE80231B021D406A1E9541ED012C432C
:104B2000E1B2301C1FF088FFF8BDC046FF7FFFFFD9
:104B300073B501A908F028FD019B061C502B02D972
:104B4000184819491CE08020400023F09AFE174CB9
:104B5000051C231C0833D8670023019A934203D015
:104B6000F15CE9540133F9E75B22281CEA5405F0B3
:104B7000A9FE2B1C002807D10834E0670C4909481E
:104B800020F05FFE0DF05FFC5A1B0133591E0978BF
:104B90009B29F9D1291C074823F028FD002308345C
:104BA000E36776BD5CDE0200094F0300A82E0020FB
:104BB000184F030084D00200F0B58BB0061C10A87B
:104BC0000778364805AD00900195081C111C1A1C89
:104BD00005230BF0A5FE9120000123F052FE304B7F
:104BE000304AD867059B476043702B7904A903704E
:104BF0002B7A041C83702B7BC3702B7C301C1360BE
:104C000008F0C2FC0025284B071C0C201D6023F077
:104C100038FE264B061C03600FF0E8FAB0600FF078
:104C2000E5FA234B23491860234B70601D70234B1A
:104C3000301C1D70224B0A1C1D602B1C0FF0A8F9A4
:104C4000201C391C049A24F02BFA201C0BF0C6FD02
:104C50001C4B071E0393134E194D164C0AD10FF02F
:104C6000A1F80F4B1848DF67184B196820F0E9FDD1
:104C70000DF0E9FB0122164B1A700FF0B1FA002873
:104C8000FBD1039B0833D8673368002B03D011484E
:104C900029681EF0C1F8201C0BB0F0BD50D80200EE
:104CA000B02E00206001002038010020ECD7020067
:104CB00034010020D4D10200F72D0020F82D00206F
:104CC0003C010020A82E00205CDE02001000002025
:104CD000F62D00202F4F030000220D4910B50B7850
:104CE000DBB2934212D10B4A1478002C02D001247B
:104CF0000C701370084B1B78002B06D0074A136802
:104D000020331360064B1A6800E08268101C10BD47
:104D1000F82D0020F62D0020F72D0020380100206E
:104D200034010020D2235B005843134A30B5136886
:104D3000000C834206D9114C2368013323601368A9
:104D4000203B13601F23051C14689D43A54203D913
:104D500001240B4B1C70F5E703401A1D202A00D9D3
:104D60002022084C2468934203D2E51829710133AC
:104D7000F9E7054B186030BD380100203C010020E8
:104D8000F72D00203401002030010020F0B593B051
:104D9000061C06A80F1C141C0DF03AFB051E23D19F
:104DA0003368311C012603A83A1C01930AF07EF9EE
:104DB000A3082A1C3340019903A802F0A5FB051C97
:104DC00003200DF00BFC281C1FF058F80120404276
:104DD0000DF004FC0DF032FB344203D01348311CBB
:104DE0000DF030FC012518E0012040420DF0F6FBEB
:104DF00001210C4202D00D480DF024FC0798FEF76B
:104E000035FB0B49FCF73EFD051E04D10948079907
:104E1000FEF76AFB01E080256D0001210C4202D003
:104E200002480DF00FFC281C13B0F0BD694F0300C1
:104E30007CDF0200CCD102001FB52021684620F0A3
:104E40008BFA254824F06FFB684620F0BAFA234815
:104E500024F069FB0DF0DEFB0128F2D002280AD114
:104E60001F4824F060FB684620F0A0FA01221D4B89
:104E700000201A702DE0032803D1684620F0A1FA23
:104E8000E8E7042804D0C1B2684620F0F2FAE1E76E
:104E9000154824F048FB019A002A08D1104824F054
:104EA00042FB684620F082FA8020400011E0962004
:104EB000029940000023FFF797FC002803D10B481C
:104EC0001DF0AAFFC0E701210A1CFFF75FFFC30521
:104ED000BAD505B000BDC0463E4F03009D92030009
:104EE000DB9F0300E2000020594F03005C4F0300EA
:104EF00030B587B002A8202120F02EFA444824F0D3
:104F000012FB444824F00FFB02A820F05AFA02A832
:104F1000414922F040FC012809D1404824F003FB1C
:104F200002A820F043FA00203D4B18706EE00228E2
:104F300003D13A4824F0F7FAE0E703281AD004280E
:104F400008D1364824F0EFFA02A820F02FFA80208A
:104F500040005BE0052825D1324824F0E4FA02A89D
:104F600020F02FFA0DF056FB6B46C1B2DC1D21700C
:104F7000032901D12948C5E7042904D1274824F091
:104F8000D2FA012427E002A820F073FA23780D2B2F
:104F900003D1254824F0C7FAE4E7201C01210DF0D5
:104FA00051FBDFE702A820F01FFA0028ACD002A8CE
:104FB00020F04CFA04F03CFF00280BD002A80A2194
:104FC00020F057FA02A8194922F0E5FB0328D1D0B6
:104FD0000428ECD1002402A820F0FFF9051C02A847
:104FE00020F002FA021C9620291C40000023FFF743
:104FF000FBFB002803D10E481DF0E0FF84E7211CD5
:105000000622FFF7C3FEC30500D47DE707B030BD1D
:105010006B4F0300B04F0300D64F0300DB9F03002C
:10502000E2000020DB4F03000B500300125003008E
:10503000D9A5030038B5051C141C20F08DF9024BCE
:105040002560636038BDC0461753020010B50C1EC2
:105050007F2C06D8012120F0E7F9002844D0047005
:1050600042E0224B99420FD8022120F0DDF90028BE
:105070003AD04022A3095242134303703F231C40FD
:10508000BF3B1C4344702FE0194B994214D80321B5
:1050900020F0CAF9002827D02022230B52421343C4
:1050A000037080213F23A20949421A401C400A4351
:1050B0000C434270847017E0042120F0B5F90028F9
:1050C00012D01022A30C52421343037080213F23BD
:1050D000220B49421A400A434270A2091A401C405E
:1050E0000A430C438270C47010BDC046FF07000025
:1050F000FFFF000007B5034B009068460193FDF7E2
:1051000013F807BD1753020013B5041CA068FBF782
:10511000C5FA019000280ED06368074A934205D073
:10512000181C0121002201ABFBF770F9FEF7C8FB48
:105130000028EBD0019816BDD4D10200F7B50028A5
:1051400005D13A493A4A3B481FF0A1F96BE00D6896
:10515000281CFEF78BF94368061CEF2B04D16D6801
:10516000281CFEF783F9061C00233349DA00505847
:10517000854203D18A182F4851680AE00133612B18
:10518000F3D12C4C2D4B201C9D4201D09E4203D1CB
:105190002B491FF0B0F846E02A491FF078F9281C87
:1051A0000021FEF797F9201C274972681FF06FF95C
:1051B000264B9E4203D1281C23F035F80CE0244BEB
:1051C0009E4200D0351CA86B00282CD083072AD122
:1051D000204B02689A4226D124F057F90025061E7A
:1051E000AE4220D073689D421DD2B268EB00D31846
:1051F0001F68002F15D05B681749201C01931FF012
:1052000046F9381C0021FEF765F91449201C1FF0EF
:105210003EF901980021FEF75DF9201C10491FF0AE
:1052200036F90135DEE70F48FEBDC046EC7E0300CF
:105230003D500300CCD1020038D90200901E03007B
:10524000B4540300D0540300D8540300DCED020032
:10525000D8CE0200BC130300AEC10300E854030023
:10526000DC9F0300D4D10200F8B50327041C381CCE
:105270000E1C5043151C1DF089F90121331CA0227E
:10528000B140C133FF33D2059B006060267065805A
:105290009F50094BD1500022AA420CDA032300216F
:1052A000534360680132C1546068C018417060683F
:1052B000C3189970F0E7F8BD0C0500000122F0B5A5
:1052C0000378A0219A40131C894AC905051C85B0A2
:1052D0008B5032200138C046C046C046C046C0464A
:1052E000C046C046C046C046C046C046C046F1D1D2
:1052F000EFF31081019172B6002069880291029942
:10530000884200DB07E1032141436C686118CC1C33
:105310000394A024A1260F78E405FF09F600002FCE
:105320000BD0A351C046C046C046C046C046C0468A
:10533000C046C046C046A3500AE0A351C046A35091
:10534000C046C046C046C046C046C046C046C0462D
:105350000C78A127A446A0246646E405FF00E3518B
:1053600076060AD5C046C046C046C046C046C046BE
:10537000C046C046C046A35009E0C046A350C04640
:10538000C046C046C046C046C046C046C0460C786F
:10539000A127A446A0246646E405FF00E351B60613
:1053A0000AD5C046C046C046C046C046C046C046F4
:1053B000C046C046A35009E0C046A350C046C04600
:1053C000C046C046C046C046C046C0460C78A1276D
:1053D000A446A0246646E405FF00E351F6060AD57C
:1053E000C046C046C046C046C046C046C046C0468D
:1053F000C046A35009E0C046A350C046C046C046C0
:10540000C046C046C046C046C0460C78A127A44648
:10541000A0246646E405FF00E35136070AD5C046DE
:10542000C046C046C046C046C046C046C046C0464C
:10543000A35009E0C046A350C046C046C046C0467F
:10544000C046C046C046C0460C78A127A446A0244A
:105450006646E405FF00E35176070AD5C046C0461C
:10546000C046C046C046C046C046C046C046A3501F
:1054700009E0C046A350C046C046C046C046C0462C
:10548000C046C046C0460C78A127A446A024664664
:10549000E405FF00E351B6070AD5C046C046C04642
:1054A000C046C046C046C046C046C046A35009E0FC
:1054B000C046A350C046C046C046C046C046C046CF
:1054C000C046C0460C78A127A446A0246646E40541
:1054D000FF00E351F6070DD5C046C046C046C046A2
:1054E000C046C046C046C046C046A3500CE0C046B9
:1054F0000C050000C046A350C046C046C046C0468A
:10550000C046C046C046C046039C0131A14200D0FF
:10551000FFE60130F3E6019B83F3108805B0F0BD90
:10552000F0B5456887B00393AB6805A80F1C0292DD
:10553000059323F0DFFC061C05A823F0DBFC032306
:10554000321C584309321018800023F09AF9041CC9
:10555000094BAA6803606B68291C4360059B0662BF
:105560009B1AC360039B083000933A1C029B09F00E
:10557000A3FF201C07B0F0BD00DD020038B5051CFC
:1055800088680C1C22F022FA0349021C231C281CE8
:105590001EF07DFF38BDC0469076030010B5041C98
:1055A000082023F06EF9024B4460036010BDC04632
:1055B000B8DC0200F8B5041CC0680E1C002801D13C
:1055C00018602FE0201C111C626920301D1C8242D3
:1055D00008D1154A964206D01449154820F031F9F1
:1055E0000CF031FF1660201C124E6368083077689B
:1055F000736005F071FE7760012806D00023E36038
:10560000022809D063691B680BE063691B682B6083
:10561000002B07D1E36005E0236A07339B00E41801
:1056200063682B60F8BDC046D4D10200AE7603009B
:105630004CE30200A82E002013B501AB141CFFF7A9
:10564000B9FF01280DD0184C02281CD0019BA342A1
:1056500028D0002B26D0012101AA144820F0DEF822
:105660000DE0002C0DD0201CFDF700FF1049FCF7C9
:1056700009F9002805D00F480F4920F0E2F80CF096
:10568000E2FE01980FE00198FDF7F0FE0749FCF7F4
:10569000F9F8002801D10198F1E7019800F066FAC5
:1056A000A042F8D1002016BDD4D1020008E10200CA
:1056B00000E4020098DE0200E476030010B50C1C42
:1056C000022801D1486800E08868FBF761FC0649C0
:1056D000021C2068FFF7B0FF002804D1034820F027
:1056E000A3F80CF0B0FE10BDD4D1020008E1020016
:1056F00008B50022FFF7A0FF002804D1024820F0DF
:1057000093F80CF0A0FE08BD08E1020008B50249BC
:105710000022FFF791FF08BDD4D1020013B5124C4F
:10572000124A211C01ABFFF745FF012802D00228D5
:1057300005D017E00E490F4820F083F810E00198DB
:10574000FDF794FE0C49FCF79DF800280AD101985A
:10575000FDF78CFE0949FCF795F8002802D1019865
:105760000CF071FE201C16BDD4D1020018DF02001F
:10577000E476030098DE020000E4020008E1020083
:10578000F0B500240E1C85B0071C0393081C0D4BBC
:10579000111C0094221C0BF091F8B01C800023F027
:1057A00070F8051C07604660B44208D0039BA70050
:1057B000D859FAF725FFEF19B8600134F4E7281C2F
:1057C00005B0F0BDFFFF0000F0B5067887B0B30765
:1057D00002D5002A00D0F2E0F307DB0FDBB2029320
:1057E000002B0ED0774B0B40062B0AD003230B4027
:1057F00003D1754C0D68A54202D0012A01D0DEE02C
:10580000029301920D1C041C730749D50368876835
:10581000DE08F600BE19B74211D23868A84204D19A
:10582000019B022B00D0A1E09EE0029B002B04D143
:10583000291CFDF7B3FE0028F2D10837EBE7019BE6
:10584000012B00D0BBE02368D9086368994210D1CE
:1058500004316160A068C90023F029F823686268F8
:10586000DB08D21ADB00A060D200C018002126F0AD
:105870003EFF07222068C308591CC90002400A43A2
:105880002260A268DB004F49D3181D60181C0D4030
:10589000062D00D194E0012122788A4322708FE006
:1058A0004368002B05D1019B012B00D087E000F05D
:1058B0008DF8444B2B400493062B04D1E80823F0C9
:1058C0000EFD039005E00220291CFAF735FD431078
:1058D00003930398616814F09FF9002600910591E5
:1058E000009BDF00A368DF19386800281AD1019BEC
:1058F000311C012B63D12068C3080133DA00072370
:10590000034013432360002E00D1391C00234B6059
:10591000049B0D60081C062B52D001222378934370
:1059200023704DE0042803D1002E21D13E1C1FE03E
:10593000A84203D1019B022B18D108E0029B002B47
:1059400016D1291CFDF72AFE002811D0F2E72368A2
:105950006168083B23600098013014F05DF9A3688A
:10596000C900CB58002B00D004233B60381C27E033
:1059700000986168013014F04FF9059A0091914246
:10598000AED1019B012B1AD1002E0ED02368083313
:10599000236000237360049B3560062B03D02378BB
:1059A000019A93432370301C0AE0201C00F00EF88B
:1059B0000398616814F030F90091059190E7002098
:1059C00007B0F0BD070080FF84D00200F7B5436840
:1059D000041C0193591C0023174A9A588A4205D285
:1059E00004335C2BF8D101250D4300E0151CE800C1
:1059F000A76822F058FF0723226865601340012240
:105A00003D1C0026236013432370A060019B9E422F
:105A10000DD02968002907D0042905D0201C0122B7
:105A2000FFF7D2FE6B68436001360835EEE7381C9D
:105A300022F04EFFF7BDC046B8DD02000022F8B5E7
:105A40000768051C8668781C114BD358834205D221
:105A500004325C2AF8D10123184300E0181C00240A
:105A600028606C60800022F01EFFA860BC420BD052
:105A7000A300F158002905D0042903D0281C0122D5
:105A80001FF039FE0134F1E7301C22F021FFF8BD90
:105A9000B8DD0200F7B51F1C0023061C0093081C8C
:105AA0000D1C111C1A1C0B4B0AF008FF102022F0D1
:105AB000F5FE041E04D1084A084B094CDA6104E0E3
:105AC000281C391C0BF0F0F9E06000232660201C34
:105AD000A360FEBDFFFF0000C0000300A82E002051
